:020000040800F2
:1000000000300020D5590008E9570008F1570008D2
:1000100000000000000000000000000000000000E0
:10002000000000000000000000000000F957000878
:100030000000000000000000035800080D580008F0
:10004000255A0008255A00081D580008255A00089E
:10005000255A000835580008255A00084B58000852
:1000600000000000255A0008255A0008255A0008FB
:10007000255A0008255A0008255A0008255A000864
:10008000255A0008255A0008255A0008255A000854
:10009000255A0008255A000800000000255A0008CB
:1000A00061580008255A0008255A0008255A0008FA
:1000B000255A0008255A0008255A0008255A000824
:1000C00010B5064C2378002B07D1054B002B02D02E
:1000D000044800E000BF0123237010BD1C00002075
:1000E0000000000080BD0008044B10B5002B03D0B9
:1000F0000349044800E000BF10BDC04600000000F6
:100100002000002080BD0008002243088B4274D3E9
:1001100003098B425FD3030A8B4244D3030B8B4208
:1001200028D3030C8B420DD3FF22090212BA030C11
:100130008B4202D31212090265D0030B8B4219D3F2
:1001400000E0090AC30B8B4201D3CB03C01A524112
:10015000830B8B4201D38B03C01A5241430B8B425A
:1001600001D34B03C01A5241030B8B4201D30B0343
:10017000C01A5241C30A8B4201D3CB02C01A52416A
:10018000830A8B4201D38B02C01A5241430A8B422D
:1001900001D34B02C01A5241030A8B4201D30B0216
:1001A000C01A5241CDD2C3098B4201D3CB01C01A30
:1001B000524183098B4201D38B01C01A524143093A
:1001C0008B4201D34B01C01A524103098B4201D328
:1001D0000B01C01A5241C3088B4201D3CB00C01A95
:1001E000524183088B4201D38B00C01A524143080D
:1001F0008B4201D34B00C01A5241411A00D2014632
:10020000524110467047FFE701B5002000F0F0F8BA
:1002100002BDC0460029F7D076E7704703460B437E
:100220007FD4002243088B4274D303098B425FD3EF
:10023000030A8B4244D3030B8B4228D3030C8B421B
:100240000DD3FF22090212BA030C8B4202D3121201
:10025000090265D0030B8B4219D300E0090AC30BD6
:100260008B4201D3CB03C01A5241830B8B4201D383
:100270008B03C01A5241430B8B4201D34B03C01A6C
:100280005241030B8B4201D30B03C01A5241C30AE4
:100290008B4201D3CB02C01A5241830A8B4201D355
:1002A0008B02C01A5241430A8B4201D34B02C01A3F
:1002B0005241030A8B4201D30B02C01A5241CDD2E4
:1002C000C3098B4201D3CB01C01A524183098B422F
:1002D00001D38B01C01A524143098B4201D34B0118
:1002E000C01A524103098B4201D30B01C01A52417B
:1002F000C3088B4201D3CB00C01A524183088B4202
:1003000001D38B00C01A524143088B4201D34B00EA
:10031000C01A5241411A00D201465241104670475C
:100320005DE0CA0F00D04942031000D34042534061
:1003300000229C4603098B422DD3030A8B4212D321
:10034000FC22890112BA030A8B420CD38901921153
:100350008B4208D3890192118B4204D389013AD090
:10036000921100E08909C3098B4201D3CB01C01A65
:10037000524183098B4201D38B01C01A5241430978
:100380008B4201D34B01C01A524103098B4201D366
:100390000B01C01A5241C3088B4201D3CB00C01AD3
:1003A000524183088B4201D38B00C01A5241D9D2EB
:1003B00043088B4201D34B00C01A5241411A00D26C
:1003C0000146634652415B10104601D34042002B68
:1003D00000D54942704763465B1000D3404201B5E7
:1003E000002000F005F802BD0029F8D016E770479C
:1003F0007047C046844608006146FFE71FB500F01D
:10040000BDFA002801D40021C8421FBD10B500F07C
:1004100045FA4042013010BD10B500F0AFFA002897
:1004200001DB002010BD012010BDC04610B500F05A
:10043000A5FA002801DD002010BD012010BDC04636
:1004400010B500F053FA002801DC002010BD012097
:1004500010BDC04610B500F049FA002801DA0020AE
:1004600010BD012010BDC046002B11D1002A0FD1B4
:10047000002900D1002802D00021C943080007B498
:10048000024802A14018029003BDC04665FFFFFF6D
:1004900003B4684601B5029800F01EF8019B9E4621
:1004A00002B00CBC7047C0469E2110B5C905041CA3
:1004B000FFF7D0FF002803D1201C00F065FE10BD1F
:1004C0009E21201CC90500F0FBFB00F05DFE80238F
:1004D0001B069C466044F2E7F0B557464E4645463B
:1004E000DE46E0B504000D009246994683B08B428B
:1004F00030D82DD04946504600F0D4FE29000600E1
:10050000200000F0CFFE331A9846203B34D49B469F
:1005100053465A46934042461F00534693401E009E
:10052000AF423BD8AF4200D179E05B46A41BBD414E
:10053000002B00DA76E000220023009201930123D1
:100540005A4693400193012342469340009329E089
:100550008242CFD900220023009201930C9B002BF2
:1005600001D01C605D600098019903B0F0BCBB46EF
:10057000B246A946A046F0BD42469B4620239B1AA0
:100580005246DA40414613004A468A401700424626
:100590001F43534693401E00AF42C3D9002200239D
:1005A000009201934346002BD8D0FB0772081A43F0
:1005B00046467B080EE0AB4201D1A2420CD8A41AF9
:1005C0009D41012024196D410021013E24184D4117
:1005D000002E06D0AB42EED9013E24196D41002E0B
:1005E000F8D1009801995B4600196941002B24DB82
:1005F0002B005A464446D3402A00E2401C005B468A
:100600001500002B2ADB26009E40330026004746BB
:10061000BE403200801A9941009001919EE7A342AA
:10062000BCD882E74246202300219B1A0022009179
:1006300001920122DA40019285E7424620239B1A6B
:100640002A0046469A402300F340444613432A00BA
:10065000E2401C005B461500002BD4DA42462F0016
:100660002023260097409B1ADE403B003343CDE712
:10067000F0B546464F46D6464502C0B5C30F4700C3
:1006800098460E1C6D0A3F0E5BD0FF2F21D08023B1
:10069000ED00DB041D43002399469A467F3F740218
:1006A0007300640A1B0EF60F002B20D0FF2B43D0E3
:1006B00080220020E400D20414437F3B4246FF1A0C
:1006C0004B4672400F2B00D99DE071499B00CB58DF
:1006D0009F46002D5AD108239946063B74029A463C
:1006E0007300FF27640A1B0EF60F002BDED1002CCF
:1006F0003BD1012342464946724019430E2918D87E
:100700006448890041588F465346022B00D1B8E017
:10071000032B6ED042462C00012B40D10020002438
:10072000C0052043D2071043E0BCBA46B146A846F4
:10073000F0BDFF200024F3E7002C20D10223FF3F6F
:10074000D8E7002D05D104239946033B00279A469C
:10075000A5E7280000F088FD7627431F9D40002371
:100760007F4299469A463F1A99E7200000F07CFDA7
:10077000431F9C4076235B421B1A00209EE7032305
:100780004A461A4391460320FC3397E70C239946C7
:10079000093BFF279A4682E703282CD03200380015
:1007A0007F30002847DD630704D00F232340042B4C
:1007B00000D00434230103D53800374B80301C406F
:1007C000FE28B6DCA401640AC0B2A9E78024002296
:1007D000FF20E403A4E78023DB031D4201D01C4279
:1007E0000BD08024E4032C4364024246FF20640AB9
:1007F00096E746462C008023DB031C43640232004C
:10080000FF20640A8CE76D01600185422DD21B2315
:100810000024013F0126290064006D00002901DB4E
:10082000854201D32D1A3443013B002BF3D16B1EBB
:100830009D412C43B3E701231B1A1B2B00DD6DE701
:1008400021009E37D940BC400B00611E8C412343E0
:10085000590704D00F211940042900D0043359014D
:1008600013D49B0100205C0A5AE71A2301242D1A95
:10087000D0E7981E43425841404232000024C0B2A3
:100880004EE74246FF2000244AE70120002447E7C4
:1008900098BD0008D8BD0008FFFFFFF770B5420003
:1008A0004E024C0045026D0A120EC30F760A240E4A
:1008B000C90FFF2A10D0FF2C0CD00120A2420AD170
:1008C000B54208D18B420FD0002A04D12800431E24
:1008D000984100E0012070BD0120FF2CFBD1354381
:1008E000F9D14B401800F6E70020F4E730B542009C
:1008F00044024D02C30F4800640A120E6D0A000E36
:10090000C90FFF2A18D0FF280AD0002A1ED10028BC
:100910000AD1002D29D0002C2DD14800013830BD3E
:10092000002D25D1002A01D1002CF6D08B4219D000
:1009300001205B421843F2E7002C19D1FF28F7D1C0
:10094000002D15D100208B42F2D1E8E70028EFD02E
:100950008B42EDD18242EBDC04DBAC42E8D80020D4
:10096000AC42DCD258000138D9E7002CD7D0DFE701
:1009700002204042D3E78B42DAD1EEE730B54200A5
:1009800044024D02C30F4800640A120E6D0A000EA5
:10099000C90FFF2A17D0FF280AD0002A1BD1002830
:1009A0000AD1002D1DD0002C2DD14800013811E0B6
:1009B000002D0ED1002A01D1002CF6D08B420CD193
:1009C0005800013806E0002C03D1FF2805D1002D86
:1009D00015D0022030BD002806D101205B4218430B
:1009E000F8E7002CF6D0F8E78B42F6D18242F4DC2F
:1009F000E6DBAC42F1D80020AC42EBD2E0E70020CD
:100A00008B42EAD1E6E78B42E7D1F2E7F0B54F46F9
:100A10004646D6464400C0B546020F1C760A240E50
:100A2000C50F002C00D1DAE0FF2C74D08023F60033
:100A3000DB041E43002399469A467F3C7B025B0AF7
:100A400098467B001B0EFF0F002B74D0FF2B00D1AC
:100A50008EE042468021D200C90411437F3B2A0028
:100A6000E4184B467A408846D2B20A2B75DC4B46D6
:100A70000020022B0FDD494601238B40A621C9002F
:100A80000B4269D1902189000B4200D000E18821FE
:100A9000194200D0F5E041460904090C434608001C
:100AA000350C36041B0C360C704369435E435D43C2
:100AB0007618030C9B19994203D9802149028C4670
:100AC000654400041904000C09188E01701E86414B
:100AD0001B0C890E5B190E439B011E431B016CD43A
:100AE00023007F33002B00DCB1E0150071070BD031
:100AF0000F2021003040042806D00436320103D5EF
:100B00006E4B1E400B008033FE2B00DDBDE0B201BA
:100B1000520ADBB248E0002E00D092E0082399464A
:100B2000063B9A467B025B0A98467B00FF241B0E1D
:100B3000FF0F002B8AD14246002A64D14946013278
:100B4000114389460A2908DC7D400120EAB20229C6
:100B500091DC1500002227E015005346022B00D13E
:100B600093E0032B1AD0012B2CD1002300221BE091
:100B70004346FF34002B55D003214B460B4319004D
:100B80000A2B00DC92E00F2B00D08CE08022D203F5
:100B9000164203D04346134200D17DE08022D203A7
:100BA00032435202520AFF23D805ED07104328436F
:100BB000E0BCBA46B146A846F0BD01231500710855
:100BC0001E400E4323008033611C002B41DD720761
:100BD00094D00F223240042A00D08EE78EE7002EF8
:100BE00005D104239946033B00249A4626E73000AA
:100BF00000F03AFB7624431F9E400023644299464E
:100C00009A46241A1AE7404600F02EFB4B46241A57
:100C1000763C0A2BA1DC4346053883407D4098464C
:100C2000EAB224E74A46023313432A007A40D2B29A
:100C30000A2B92DC49461500002926D0994602204D
:100C400019E70C239946093BFF249A46F6E615005E
:100C500021000122D31A1B2B00DD86E79E313200D2
:100C60008E40DA40731E9E413243530704D00F2357
:100C70001340042B00D00432530110D5012300226D
:100C800092E73D004646824667E7FF2300228BE756
:100C900080220025D20386E73D001A4383E79201B4
:100CA0000023520A80E73D00464677E72A000123E9
:100CB0007A408B400320D2B2E9E6C046FFFFFFF73F
:100CC000F8B54746CE46430280B55F0A9B0945000A
:100CD0004A009C464B02C40FCE0F2D0E580A120E2E
:100CE0009909FF2A6BD001235E40AB1AB4424BD066
:100CF000002B00DCFFE0002A00D188E0FF2D00D1AE
:100D0000EFE08022D204114301201B2B08DC0800F5
:100D10002022D840D31A99400B005A1E9341184301
:100D200063461B1A9C4663465B0100D4CDE06346D4
:100D30009F01BF09380000F097FA3B000538834057
:100D4000854200DCA2E0B74A2D1A1A4094465A07A1
:100D500000D1C3E00F221340042B00D1BEE00423D6
:100D60009846C44463465B0100D4B7E0681CFE2D7E
:100D700000D0A5E0FF200022C0051043E407204377
:100D8000C0BCB946B046F8BD002B00DCEBE1002A40
:100D900046D0FF2D00D1A4E08022D20411431B2BAA
:100DA00000DCFBE0052398462B00C4446246D708CC
:100DB000FF2B00D195E07A02520AD8B2DCE72B0073
:100DC000FF3B9946002918D101235E40B44200D16F
:100DD000CAE04B46002B2DD0002D00D03CE1FF2374
:100DE0006446002C00D15FE15D1E012B00D174E14F
:100DF0003400FF2B74D02B0003E1B44200D19CE0FF
:100E0000002B17D0002DEAD0070034006CE0002939
:100E1000CCD05A1E012B2BD0FF2B62D0130073E7CE
:100E20000029C3D05A1E012B00D11EE1FF2B58D040
:100E30001300B4E7FE226B1C1A420DD1002D60D0C6
:100E40006346002B00D020E1002900D028E1802259
:100E50000024FF20D2038FE763465F1A7B0100D591
:100E6000FEE0002F00D065E700240020002283E789
:100E70006346591A4B0100D419E18F01BF093800AC
:100E800000F0F2F93B000538834001252022401B89
:100E90000130121A19009340C1405A1E9341194360
:100EA0008C460B1EE1D05B0700D152E10F230025D9
:100EB0000B40042B00D052E701204A0100D492E0FD
:100EC000C0B263469A01520A56E763465B0705D0F3
:100ED0000F2362461340042B00D040E72B0065E748
:100EE0000700002F00D145E78022D2033A43520287
:100EF000FF20520A40E7002B79D1FE226B1C1A42D8
:100F0000AAD16346002B00D1F5E0002900D1D1E041
:100F10005F1A8023DB041F4200D10EE162460124E8
:100F20008A1A944600203440002A00D124E7012088
:100F30001A42C6D10023D7083DE7002B17D0002D59
:100F400000D0AFE0FF236546002D00D1ADE05E1E6E
:100F5000012B00D189E0FF2BC2D01B2E00DCABE0BF
:100F60004B1D9C46130021E74B46002B70D1FE22FF
:100F70006B1C1A425ED1002D00D0C3E06346002BEB
:100F800000D1D0E0002900D194E00A00624453016E
:100F900000D4D8E092010120520AEDE60800202298
:100FA000D840D31A99400B005A1E934103439C44E6
:100FB00063465B0189D50135FF2D00D1DAE6624633
:100FC00001231949134052080A401A43130094465A
:100FD0005B0704D00F231340042B00D0BFE6634609
:100FE0005B0100D5C2E66346DF082B00E3E6531B36
:100FF000002D00D1F4E680206446C0040443A446DA
:10100000340001201B2B09DC20256046D840EB1A58
:1010100065469D402B005D1EAB4118430B1A9C4654
:10102000150080E6FFFFFFFBFFFFFF7DFE226B1C2C
:101030001342A3D0FF2B00D19CE6614449084A0724
:1010400049D00F220A40042A45D00A1D9446ADE635
:10105000002D00D176E78DE63400FF2000228BE6DC
:1010600063460124CF1A344064E661444B016DD5D8
:1010700048084449014043072CD00F230340042B68
:1010800028D00B1D9C46022390E6002900D12BE7B7
:101090008023DB039F4200D226E7984200D323E758
:1010A0000124344007001FE734008C467EE601230C
:1010B000CF0880E600237EE620206546801B854021
:1010C00063462800F340451EA84103439C46150093
:1010D0008C446DE70223CF086DE60F1B7B0128D5FA
:1010E000BF01BF09380000F0BFF83B00053883405E
:1010F00034000125CAE6002900D1B5E60124070025
:10110000344058E66346002B00D1E9E6002900D1BF
:10111000EAE68023DB039F4200D2E5E6984200D353
:10112000E2E60700E0E6002900D19EE60023CF08B2
:1011300041E634000123FF083DE6002F00D193E68D
:101140000023FF0837E60023D70834E60123CF0841
:1011500031E680220B00D20401201340114200D05E
:10116000AEE6CF0827E6002B00D15FE7561B002D27
:1011700001D13300E7E680236046DB041843844650
:10118000EBE6C046FFFFFF7D41024200C30F490A64
:101190000020120E7E2A03DD9D2A02DD094A9818DE
:1011A0007047802000040143952A07DC9620821AAC
:1011B000D1404842002BF3D10800F1E7963A914024
:1011C000F7E7C046FFFFFF7F70B5002812D0C317B6
:1011D000C5185D40C40F280000F046F89E231B1A76
:1011E000962B0FDC082838D0083885406D026D0A30
:1011F000D8B202E0002400200025C0052843E407FF
:10120000204370BD992B14DC421F95402A001549DC
:10121000114055071CD00F252A40042A18D004314C
:10122000CA08490115D59F235202181A550AC0B29F
:10123000E3E705222900121AD14002001B32954033
:101240002A00551EAA410A43064911405507E2D11A
:10125000CA085202550AD8B2CFE76D026D0A8E3025
:10126000CBE7C046FFFFFFFB1C2101231B04984274
:1012700001D3000C10391B0A984201D3000A083927
:101280001B09984201D30009043902A2105C4018DE
:101290007047C04604030202010101010000000082
:1012A0000000000010B5002903D1FFF7DDFF20305A
:1012B00002E00800FFF7D8FF10BDC04690B589B026
:1012C00004AF04000800BA6019000E23FB18221CAA
:1012D0001A800C243B19021C1A80BB1D0A1C1A80A0
:1012E0003B191A880B4801235B420293BB1D1B88E4
:1012F0000193BB6800930123D52105F059FA031E21
:1013000001D1002301E001235B421800BD4605B076
:1013100090BDC0461C01002090B589B004AF040008
:101320000800BA6019000E23FB18221C1A800C2436
:101330003B19021C1A80BB1D0A1C1A803B191A8813
:101340000B4801235B420293BB1D1B880193BB68C2
:1013500000930123D52105F059FB031E01D1002381
:1013600001E001235B421800BD4605B090BDC046B8
:101370001C01002080B588B000AF3B0000229A60BD
:101380003B00D5221A733B0000221A603B0000226A
:101390005A603B00354A9A613B00354ADA613B00AE
:1013A000344A1A613B00344A5A613A00334B110007
:1013B000180000F06DFC031E02D001235B4251E0D7
:1013C0002E4B180000F0C6FC031E02D001235B4226
:1013D00048E02A4B180000F04AFD031E02D001230A
:1013E0005B423FE0264A254B111C180000F062FDCD
:1013F000031E02D001235B4234E0204B022118007F
:1014000000F075FD031E02D001235B422AE01B4B56
:101410000021180000F0D6FD031E02D001235B421C
:1014200020E0184B1A78154B1100180000F052FEFE
:10143000031E02D001235B4214E0104B0021180070
:1014400000F062FE031E02D001235B420AE00B4B58
:101450000121180000F095FD031E02D001235B421C
:1014600000E000231800BD4608B080BD0D5B0008F9
:10147000215B0008BD120008191300083800002085
:101480000000D0420000002080B582B000AF3A00DA
:101490000B4B1100180001F06BFC031E0AD13B003E
:1014A0001B7802221340DBB2002B01D0012302E0A3
:1014B000002300E000231800BD4602B080BDC046F6
:1014C0005800002080B500AF024B1B781800BD46C5
:1014D00080BDC0461901002080B500AF024B00223C
:1014E0001A70C046BD4680BD1901002080B500AF0E
:1014F000FFF7CAFF03001A00044B1A7002F0EAFB60
:1015000002F0F0FBC046BD4680BDC0461901002078
:1015100080B586B004AF0200FB1D1A70BB1D0A1C0B
:101520001A70FB1D1B789AB20748642302930123AB
:101530000193BB1D00930123D62105F039F9030067
:101540001800BD4602B080BD1C01002080B586B0E9
:1015500004AF02003960FB1D1A70FB1D1B789AB2A4
:10156000074864230293012301933B6800930123FE
:10157000D62105F04BFA03001800BD4602B080BD2D
:101580001C010020F0B589B004AF02003960FB1DDA
:101590001A70FB1D1B789AB20F26BC1912486423DF
:1015A0000293022301930C257B1900930123D6217A
:1015B00005F02CFA03002370BB191B78002B0CD10B
:1015C0007B195B781BB21B021AB27B191B781BB20A
:1015D00013431BB29AB23B681A800F23FB181B7887
:1015E0001800BD4605B0F0BD1C01002080B582B0DA
:1015F00000AFFB1D19001620FFF7A8FF031E01D046
:10160000012314E0FB1D1B7820221343DAB2FB1DDB
:101610001A70FB1D1B7803229343DAB2FB1D1A706C
:10162000FB1D1B7819001620FFF772FF030018003E
:10163000BD4602B080BD80B584B000AF0200FB1D86
:101640001A700F23FB1819001C20FFF77FFF031EE1
:1016500001D001231DE0FB1D1B78002B09D00F21B9
:101660007B181B78802252421343DAB27B181A701F
:1016700007E00F217B181B787F221340DAB27B181A
:101680001A700F23FB181B7819001C20FFF740FF6E
:1016900003001800BD4604B080BD80B584B000AF23
:1016A0000200FB1D1A700F23FB1819002B20FFF7F7
:1016B0004DFF031E01D001231DE0FB1D1B78002BF5
:1016C00009D00F217B181B78802252421343DAB2D3
:1016D0007B181A7007E00F217B181B787F221340BC
:1016E000DAB27B181A700F23FB181B7819002B2015
:1016F000FFF70EFF03001800BD4604B080BD0000D8
:1017000080B586B000AF3B1D180003231A000021EE
:101710000AF000FBFB1C19002120FFF717FF031E36
:1017200010D1FB1C1B7807221340DAB23B1D1A7044
:10173000FB1C1B78DB08DBB207221340DAB23B1D2F
:101740005A7005E03B1DFF221A703B1DFF225A70A4
:101750003B0019003520FFF715FF031E41D13B0068
:101760001B885B089AB212217B181205120D1A8091
:101770007B181B881800FFF727FD031C2B49181C3A
:10178000FFF744F9031CFB602949F868FEF770FF76
:10179000031C2849181CFFF793FA031C2649181C40
:1017A000FEF766FF031C2549181CFFF72FF9031CE1
:1017B0007B6100217869FEF72FFE031E01D0002314
:1017C0007B611E497869FEF73BFE031E01D01B4B6F
:1017D0007B617869FEF768FE0300DAB23B1D9A7000
:1017E00002E03B1DFF229A7008203B183A1D118829
:1017F000198092789A703A1800231178FF200140DE
:10180000FF2083430B435178FF20014009020C481D
:1018100003400B439278FF210A40120409490B4010
:1018200013431800BD4606B080BDC0460000A03F6F
:1018300000007A44000040409899993F0000C84257
:10184000FF00FFFFFFFF00FF80B582B000AF020086
:10185000FB1D1A70FB1D1A7880231B010348190019
:1018600004F09FFCC046BD4602B080BD000400509D
:1018700080B500AF0020FFF7E7FF0120FFF7DBFE98
:101880000120FFF70AFFFFF7B1FE03001800BD4675
:1018900080BD000080B500AF034B180005F06CFB65
:1018A000C046BD4680BDC04670010020B0B500AF47
:1018B000124B134A13CA13C313CA13C303CA03C375
:1018C0001188198092789A700E4A0C4B11001800FA
:1018D00002F09AFE0C4B0B4A13CA13C313CA13C36C
:1018E00003CA03C312881A80064B5A78074B1A7032
:1018F000074B01221A70C046BD46B0BD70000020E3
:10190000B800002094000020DC000020010000202E
:10191000FE00002080B582B000AF786008001100A2
:10192000FB1C021C1A703B000A1C1A807B681A6898
:10193000124B1B689A421DD1FB1C1B78002B0FD148
:101940000F4B00221A700F4B03221A700D4B1B789D
:101950001A0080239B040C49786805F04BFA09E0D3
:101960000A4B1B7802339AB280239B04084978689B
:1019700005F080F9C046BD4602B080BD7001002070
:101980000001002002000020B8000020010000201B
:10199000DC00002080B584B000AF78607B681A68F6
:1019A000194B1B689A422CD1184B1A78184B1B788C
:1019B000D318DAB2154B1A70144B1B78032B1BD1BA
:1019C0000F217B18134A92781A700A00BB181B78F3
:1019D000002B11D00E4BBA1812781A700B4B1B78D3
:1019E0001A000C4BD1180A4B1B781A0080239B0459
:1019F000786805F0FFF904E0FFF758FF064B002276
:101A00001A70BD4604B080BD7001002000010020A6
:101A100002000020B8000020FF00002080B582B046
:101A200000AF78607B681A68054B1B689A4203D147
:101A30007B68180005F0A0FAC046BD4602B080BD24
:101A400070010020B0B588B004AFF86008007A607B
:101A500019000B243B19021C1A7008257B190A1C5B
:101A60001A803B191B789AB2F86801235B420293F3
:101A70007B191B8801937B6800930123B52104F037
:101A800097FE03001800BD4604B0B0BDF0B58BB0A2
:101A900004AFF86008007A6019000B243B19021C9F
:101AA0001A7008257B190A1C1A803B191B789AB2F8
:101AB0001726BC19F86801235B4202937B191B8827
:101AC00001937B6800930123B52104F09FFF03007D
:101AD0002370BB191B781800BD4607B0F0BD00008D
:101AE00080B582B000AF1C4B1C4A1A601A4B1C4ACE
:101AF0005A60194B1B4ADA60174B1B4A9A603B1D10
:101B000000221A703B1D00225A703B1D124A1968B0
:101B1000100003F03EF9104B0621180003F009F9FC
:101B2000124B1A880C4B1100180003F0B3FA0F4B3C
:101B30001A88094B1100180003F005FB064B02211F
:101B4000180003F0BCF8044B0121180003F0D3FB8C
:101B5000C046BD4602B080BD04010020451A000801
:101B60008D1A00081C010020215B000804000020E1
:101B700080B582B000AF0200FB1D1A70FB1D1A7801
:101B8000064B1100180002F061FF044B0121180000
:101B900002F0C6FFC046BD4602B080BD0401002071
:101BA00080B582B000AF78607A68054B11001800EC
:101BB00003F039F803001800BD4602B080BDC046EE
:101BC0000401002080B582B000AF78607A68054BD0
:101BD0001100180003F04DF803001800BD4602B0D4
:101BE00080BDC0460401002080B582B000AFFA1C61
:101BF00010480123252102F035FE03007B607B683D
:101C0000002B11D1FB1C1B781A000423134001D0B8
:101C100004230AE0FB1C1B781A000223134001D0A6
:101C2000022302E0002300E000231800BD4602B0BA
:101C300080BDC0460401002080B500AFFFF7D4FF8F
:101C40000300DAB2034B1A70024B1B781800BD4632
:101C500080BDC0461801002080B500AF024B0022B5
:101C60001A70C046BD4680BD1801002080B500AF87
:101C7000FFF7E2FF0300DAB2044B1A7002F02AF811
:101C800002F030F8C046BD4680BDC04618010020B5
:101C900080B584B000AF786039600023FB607B685A
:101CA000002B03D101235B42FB604AE03B681A68CA
:101CB0007B681A603B685A687B685A603B689A6820
:101CC0007B689A603B681A7B7B681A733B681A6969
:101CD0007B681A613B685A697B685A613B689A69FC
:101CE0007B689A617B68194A5A627B68184A1A6253
:101CF0003B68DA697B689A627B687A68DA627B683B
:101D00001B68002B1DD07B681B689847031E18D1E9
:101D10007B689B68022B14D17B6830229B5C002B74
:101D20000FD10B217B180C221A707B181A787B6854
:101D30001221180000F006F9031E02D001235B42B5
:101D4000FB60FB681800BD4604B080BD512300084D
:101D50009523000880B582B000AF78607B6820339F
:101D60000121180001F07EF8031E02D001235B421E
:101D700079E07B680021180000F0E0F9031E02D032
:101D800001235B426FE07B6820330121180001F0E2
:101D9000F7F8031E02D001235B4264E07B68203326
:101DA0000121180001F0BCF8031E02D001235B42A0
:101DB00059E07B6820330121180001F0E1F8031E8F
:101DC00002D001235B424EE07B68203301211800E2
:101DD00000F09EFF031E02D001235B4243E07B68BC
:101DE00020330021180001F00FFE031E02D0012352
:101DF0005B4238E07B683322042199547B682033AE
:101E00000021180000F06AFB031E02D001235B4290
:101E100029E07B6820330021180000F02FFB031E0F
:101E200002D001235B421EE07B68342204219954D6
:101E30007B6820330021180000F075FD031E02D0DE
:101E400001235B420FE07B6820330C21180000F077
:101E50003AFD031E02D001235B4204E07B6830227E
:101E60000121995400231800BD4602B080BD80B501
:101E700082B000AF78607B6831229B5C012B01D17E
:101E8000002313E07B6820331A007B6833215B5CFE
:101E90001900100000F022FB031E02D001235B4258
:101EA00004E07B6831220121995400231800BD46CB
:101EB00002B080BD80B582B000AF786039607B68C9
:101EC00031229B5C012B07D13A687B68111C1800FA
:101ED00000F060F9030006E03A687B68111C180006
:101EE00000F0CEF903001800BD4602B080BD80B5F9
:101EF00084B000AF786039603B68022B0BDD3B6833
:101F0000042B06DD3B68082B01DC032304E00123DE
:101F100002E0022300E000230F217A1813707B688F
:101F200020331A007B181B781900100000F0A6FA65
:101F3000031E02D001235B4200E000231800BD46CF
:101F400004B080BD80B582B000AF78600800110099
:101F5000FB1C021C1A70BB1C0A1C1A707B68203305
:101F60001800BA1CFB1C1978012300F05EFA031E4E
:101F700002D001235B4200E000231800BD4602B0FE
:101F800080BD80B582B000AF78600A00FB1C1A707B
:101F9000FB1C1B78012B02D901235B420EE07B68FE
:101FA00020331A00FB1C1B781900100001F050FCB4
:101FB000031E02D001235B4200E000231800BD464F
:101FC00002B080BD80B588B000AF78600A00FB1C0D
:101FD0001A700023FB613E4A7B68111C1800FFF752
:101FE00069FF031E02D001235B426CE07B68022183
:101FF0001800FFF77CFF031E02D001235B4262E062
:102000007B6820330021180001F0CEFC031E02D0B3
:1020100001235B4257E07B6820330221180001F066
:1020200093FC031E02D001235B424CE0FB1C1B7897
:10203000002B02D0012B1FD03DE07B6820331422FF
:10204000BA181100180001F08CF9031E02D0012308
:102050005B4238E014203B185A7820210A435A701A
:102060007B6820333A181100180000F0B9FF031EF6
:1020700025D001235B4226E07B6820330C22BA186E
:102080001100180001F082FB031E02D001235B4205
:1020900019E00C203B185A7820210A435A707B68BB
:1020A00020333A181100180001F0BDF9031E08D0C2
:1020B00001235B4207E001235B42FB6102E0C04673
:1020C00000E0C046FB691800BD4608B080BDC046B0
:1020D0000000D04380B582B000AF78600A00FB1CDE
:1020E0001A707B6820331A00FB1C1B781900100043
:1020F00001F02AFC031E02D001235B4200E0002312
:102100001800BD4602B080BD80B582B000AF7860D7
:102110000A00FB1C1A707B6820331A00FB1C1B781A
:102120001900100001F040FC031E02D001235B42A5
:1021300000E000231800BD4602B080BD80B584B029
:1021400000AF78600A00FB1C1A700023FB60FB1CC8
:102150001B78012B07D0FB1C1B78022B01D102231B
:1021600002E0002300E001230B217A1813707B6842
:1021700020331A007B181B781900100000F0A2FE13
:10218000031E02D001235B42FB60FB681800BD46C2
:1021900004B080BD80B584B000AF786039602F494D
:1021A0003868FEF743F9031E01D0012340E02C49B3
:1021B0003868FEF73BF9031E01D0022338E02949B5
:1021C0003868FEF733F9031E01D0032330E02649B7
:1021D0003868FEF72BF9031E01D0042328E02349B9
:1021E0003868FEF723F9031E01D0052320E02049BB
:1021F0003868FEF71BF9031E01D0062318E01D49BD
:102200003868FEF713F9031E01D0072310E01A49BE
:102210003868FEF70BF9031E01D0082308E01749C0
:102220003868FEF703F9031E01D0092300E00A23F2
:102230000F217A1813707B6820331A007B181B78E3
:102240001900100000F04AF9031E02D001235B427E
:1022500000E000231800BD4604B080BD00004841E6
:102260000000D041000050420000D0420000504326
:102270000000D043004050440040D044004050454E
:1022800080B582B000AF7860396028493868FEF7C1
:10229000CDF8031E01D0012340E025493868FEF740
:1022A000C5F8031E01D0022338E022493868FEF742
:1022B000BDF8031E01D0032330E01F493868FEF744
:1022C000B5F8031E01D0042328E01C493868FEF746
:1022D000ADF8031E01D0052320E019493868FEF748
:1022E000A5F8031E01D0062318E016493868FEF74A
:1022F0009DF8031E01D0072310E013493868FEF74C
:1023000095F8031E01D0082308E010493868FEF74D
:102310008DF8031E01D0092300E00A237A683321D7
:10232000535400231800BD4602B080BD0000484150
:102330000000D041000050420000D0420000504355
:102340000000D043004050440040D044004050457D
:10235000F0B587B000AFF86008007A6019000B256F
:102360007B19021C1A700826BB190A1C1A80FB680C
:102370007B617B695C697B691B7B18007B191B781F
:1023800099B2BB191B887A68A04703001800BD46A4
:1023900007B0F0BDF0B587B000AFF86008007A6014
:1023A00019000B257B19021C1A700826BB190A1C80
:1023B0001A80FB687B617B691C697B691B7B180049
:1023C0007B191B7899B2BB191B887A68A047030058
:1023D0001800BD4607B0F0BDB0B586B000AFF860DC
:1023E00008007A6019000B23FB18021C1A700823DE
:1023F000FB180A1C1A80FB68002B02D101235B42E8
:102400000FE0FB685C68FB68D8680823FB181D8830
:102410007A680B23FB1819782B00A04703007B6117
:102420007B691800BD4606B0B0BDB0B586B000AF40
:10243000F86008007A6019000B23FB18021C1A7060
:102440000823FB180A1C1A80FB68002B02D1012309
:102450005B420FE0FB681C68FB68D8680823FB1828
:102460001D887A680B23FB1819782B00A0470300FE
:102470007B617B691800BD4606B0B0BD90B585B0E4
:1024800000AF78600A00FB1C1A7008243A197868BB
:1024900001231021FFF7A0FF0300FB60FB68002B66
:1024A00017D1FB1C1B7803221340DAB23B1903211E
:1024B0000A4090001A780C218A43111C021C0A431E
:1024C0001A703A19786801231021FFF7AEFF030054
:1024D000FB60FB681800BD4605B090BD90B587B0A5
:1024E00000AF78600A00FB1C1A701723FB18FA1C57
:1024F00012781A700C243A197B681100180001F048
:10250000B3FA03003B613B69002B00D005E12100D9
:102510007B181B78DB07DB0FDAB27B181B789B0775
:10252000DB0FDBB21343DAB27B181B785B07DB0FE0
:10253000DBB21343DAB27B181B781B07DB0FDBB26D
:102540001343DAB27B181B78DB06DB0FDBB21343D5
:10255000DAB27B181B789B06DB0FDBB21343DAB2CF
:102560007B181B785B06DB0FDBB21343DAB27B18F8
:102570001B781B06DB0FDBB21343DAB27B185B78E8
:10258000DB07DB0FDBB21343DAB27B185B789B0708
:10259000DB0FDBB21343DAB27B185B785B07DB0F30
:1025A000DBB21343DAB27B185B781B07DB0FDBB2BD
:1025B0001343DAB27B185B78DB06DB0FDBB2134325
:1025C000DAB27B185B789B06DB0FDBB21343DAB21F
:1025D0007B185B785B06DB0FDBB21343DAB27B1848
:1025E0005B781B06DB0FDBB21343DBB2012B00D0A1
:1025F00093E00B243A197B681100180001F066FA89
:1026000003003B613B69002B00D086E03B191B783F
:10261000032B52D000DD7AE0022B2DD000DD76E0D6
:10262000002B02D0012B0FD071E0FB1C1B78002B7C
:1026300004D11723FB1801221A706EE01723FB1830
:10264000FA1C12781A7068E0FB1C1B78002B04D16E
:102650001723FB1802221A705FE0FB1C1B78012B6A
:1026600004D11723FB1802221A7056E01723FB1817
:10267000FA1C12781A7050E0FB1C1B78002B04D156
:102680001723FB1803221A7047E0FB1C1B78012B51
:1026900004D11723FB1803221A703EE0FB1C1B78A1
:1026A000022B04D11723FB1803221A7035E01723DD
:1026B000FB18FA1C12781A702FE0FB1C1B78002BF9
:1026C00004D11723FB1804221A7026E0FB1C1B7888
:1026D000012B04D11723FB1804221A701DE0FB1CE8
:1026E0001B78022B04D11723FB1804221A7014E064
:1026F000FB1C1B78032B04D11723FB1804221A7030
:102700000BE01723FB18FA1C12781A7005E0172348
:10271000FB18FA1C12781A70C0460A217B18002296
:102720001A703B69002B00D0A1E00C007A187B687E
:102730001100180001F016FA03003B613B191B78E9
:10274000012B00D093E009243A197B68110018008E
:1027500001F038FA03003B613B69002B00D086E0B2
:102760003B191B78032B52D000DD7AE0022B2DD0D1
:1027700000DD76E0002B02D0012B0FD071E0FB1CB6
:102780001B78002B04D11723FB1801221A706EE06E
:102790001723FB18FA1C12781A7068E0FB1C1B78D0
:1027A000002B04D11723FB1802221A705FE0FB1CD8
:1027B0001B78012B04D11723FB1802221A7056E054
:1027C0001723FB18FA1C12781A7050E0FB1C1B78B8
:1027D000002B04D11723FB1803221A7047E0FB1CBF
:1027E0001B78012B04D11723FB1803221A703EE03B
:1027F000FB1C1B78022B04D11723FB1803221A7031
:1028000035E01723FB18FA1C12781A702FE0FB1C16
:102810001B78002B04D11723FB1804221A7026E022
:10282000FB1C1B78012B04D11723FB1804221A7000
:102830001DE0FB1C1B78022B04D11723FB1804227C
:102840001A7014E0FB1C1B78032B04D11723FB1810
:1028500004221A700BE01723FB18FA1C12781A7066
:1028600005E01723FB18FA1C12781A70C0463B6962
:10287000002B08D10823FA18786801231021FFF7EC
:10288000ABFD03003B613B69002B17D11723FB18FD
:102890001B780F221340DAB208243B1910011A7872
:1028A0000F210A40111C021C0A431A703A19786859
:1028B00001231021FFF7B9FD03003B613B691800BC
:1028C000BD4607B090BD90B585B000AF78600A00F6
:1028D000FB1C1A7008243A19786801231121FFF7AC
:1028E0007BFD0300FB60FB68002B17D1FB1C1B78F2
:1028F0000F221340DAB23B190F210A4010001A7858
:102900000F218A43111C021C0A431A703A19786875
:1029100001231121FFF789FD0300FB60FB6818000C
:10292000BD4605B090BD90B587B000AF78600A0095
:10293000FB1C1A701723FB18FA1C12781A700C244F
:102940003A197B681100180001F08EF803003B6112
:102950003B69002B00D005E121007B181B78DB07C9
:10296000DB0FDAB27B181B789B07DB0FDBB213435C
:10297000DAB27B181B785B07DB0FDBB21343DAB2EA
:102980007B181B781B07DB0FDBB21343DAB27B1813
:102990001B78DB06DB0FDBB21343DAB27B181B7844
:1029A0009B06DB0FDBB21343DAB27B181B785B06A6
:1029B000DB0FDBB21343DAB27B181B781B06DB0F8D
:1029C000DBB21343DAB27B185B78DB07DB0FDBB2D9
:1029D0001343DAB27B185B789B07DB0FDBB2134340
:1029E000DAB27B185B785B07DB0FDBB21343DAB23A
:1029F0007B185B781B07DB0FDBB21343DAB27B1863
:102A00005B78DB06DB0FDBB21343DAB27B185B7853
:102A10009B06DB0FDBB21343DAB27B185B785B06F5
:102A2000DB0FDBB21343DAB27B185B781B06DB0FDC
:102A3000DBB21343DBB2012B00D093E00B243A1935
:102A40007B681100180001F041F803003B613B690D
:102A5000002B00D086E03B191B78032B52D000DD01
:102A60007AE0022B2DD000DD76E0002B02D0012B86
:102A70000FD071E0FB1C1B78002B04D11723FB182F
:102A800001221A706EE01723FB18FA1C12781A70D4
:102A900068E0FB1C1B78002B04D11723FB180222D3
:102AA0001A705FE0FB1C1B78012B04D11723FB1865
:102AB00002221A7056E01723FB18FA1C12781A70BB
:102AC00050E0FB1C1B78002B04D11723FB180322BA
:102AD0001A7047E0FB1C1B78012B04D11723FB184D
:102AE00003221A703EE0FB1C1B78022B04D1172333
:102AF000FB1803221A7035E01723FB18FA1C127812
:102B00001A702FE0FB1C1B78002B04D11723FB1835
:102B100004221A7026E0FB1C1B78012B04D117231A
:102B2000FB1804221A701DE0FB1C1B78022B04D139
:102B30001723FB1804221A7014E0FB1C1B78032BCC
:102B400004D11723FB1804221A700BE01723FB187B
:102B5000FA1C12781A7005E01723FB18FA1C127879
:102B60001A70C0460A217B1800221A703B69002B9C
:102B700000D0A1E00C007A187B681100180000F06A
:102B8000F1FF03003B613B191B78012B00D093E060
:102B900009243A197B681100180001F013F80300AA
:102BA0003B613B69002B00D086E03B191B78032B6F
:102BB00052D000DD7AE0022B2DD000DD76E0002B34
:102BC00002D0012B0FD071E0FB1C1B78002B04D12D
:102BD0001723FB1801221A706EE01723FB18FA1C4A
:102BE00012781A7068E0FB1C1B78002B04D11723A5
:102BF000FB1802221A705FE0FB1C1B78012B04D12A
:102C00001723FB1802221A7056E01723FB18FA1C30
:102C100012781A7050E0FB1C1B78002B04D117238C
:102C2000FB1803221A7047E0FB1C1B78012B04D110
:102C30001723FB1803221A703EE0FB1C1B78022BA3
:102C400004D11723FB1803221A7035E01723FB1851
:102C5000FA1C12781A702FE0FB1C1B78002B04D191
:102C60001723FB1804221A7026E0FB1C1B78012B8B
:102C700004D11723FB1804221A701DE0FB1C1B78DB
:102C8000022B04D11723FB1804221A7014E0FB1C3A
:102C90001B78032B04D11723FB1804221A700BE0B6
:102CA0001723FB18FA1C12781A7005E01723FB187B
:102CB000FA1C12781A70C0463B69002B08D1082311
:102CC000FA18786801231121FFF786FB03003B61A6
:102CD0003B69002B17D11723FB181B780F221340D9
:102CE000DAB208243B1910011A780F210A40111C8E
:102CF000021C0A431A703A19786801231121FFF760
:102D000094FB03003B613B691800BD4607B090BDD2
:102D100090B585B000AF78600A00FB1C1A700824DB
:102D20003A19786801231221FFF756FB0300FB6074
:102D3000FB68002B17D1FB1C1B7801221340DAB271
:102D40003B1901210A4090011A7840218A43111C45
:102D5000021C0A431A703A19786801231221FFF7FE
:102D600064FB0300FB60FB681800BD4605B090BD26
:102D700080B584B000AF786039603A687868012324
:102D80001A21FFF729FB0300FB60FB68002B08D129
:102D90003B685A1C786801231B21FFF71DFB0300C9
:102DA000FB60FB68002B08D13B689A1C7868012304
:102DB0001C21FFF711FB0300FB60FB68002B08D10F
:102DC0003B68DA1C786801231D21FFF705FB03002F
:102DD000FB60FB68002B08D13B681A1D7868012353
:102DE0001E21FFF7F9FA0300FB60FB68002B06D1F8
:102DF0007B680221180000F065F80300FB60FB68A7
:102E0000002B08D13B685A1D786801231221FFF777
:102E1000E3FA0300FB60FB68002B08D13B689A1DB6
:102E2000786801231321FFF7D7FA0300FB60FB68E2
:102E3000002B08D13B68DA1D786801231421FFF7C5
:102E4000CBFA0300FB60FB68002B06D17B680021F6
:102E5000180000F037F80300FB60FB681800BD465F
:102E600004B080BD90B585B000AF78600A00FB1C4F
:102E70001A7008243A19786801231821FFF7ACFA70
:102E80000300FB60FB68002B17D1FB1C1B780122A1
:102E90001340DAB23B1901210A4090181A78022136
:102EA0008A43111C021C0A431A703A1978680123DC
:102EB0001821FFF7BAFA0300FB60FB681800BD4653
:102EC00005B090BD90B585B000AF78600A00FB1CDE
:102ED0001A7008243A19786801230121FFF77CFA57
:102EE0000300FB60FB68002B15D1FB1C1B78032241
:102EF0001340DAB23B1990011A783F210A40111CA5
:102F0000021C0A431A703A19786801230121FFF75D
:102F10008CFA0300FB60FB681800BD4605B090BD4D
:102F200090B585B000AF78600A00FB1C1A700824C9
:102F30003A19786801231221FFF74EFA0300FB606B
:102F4000FB68002B17D1FB1C1B7801221340DAB25F
:102F50003B1901210A4010001A7801218A43111CF3
:102F6000021C0A431A703A19786801231221FFF7EC
:102F70005CFA0300FB60FB681800BD4605B090BD1D
:102F800090B585B000AF78600A00FB1C1A70082469
:102F90003A19786801231221FFF71EFA0300FB603B
:102FA000FB68002B17D1FB1C1B7801221340DAB2FF
:102FB0003B1901210A4090001A7804218A43111C10
:102FC000021C0A431A703A19786801231221FFF78C
:102FD0002CFA0300FB60FB681800BD4605B090BDED
:102FE00090B585B000AF786039607B680221180029
:102FF000FFF768FF0300FB60FB68002B08D13B680C
:103000005A1D786801230D21FFF70FFA0300FB60BA
:10301000FB68002B08D13B689A1C786801230A21C1
:10302000FFF703FA0300FB60FB68002B08D13B6845
:10303000DA1C786801230B21FFF7F7F90300FB6026
:10304000FB68002B08D13B681A1D786801230C210E
:10305000FFF7EBF90300FB60FB68002B06D17B68F0
:1030600000211800FFF72EFF0300FB60FB68002B18
:1030700000D0D6E03B689B781B06DB0FDAB23B68DA
:103080009B789B06DB0FDBB21343DAB23B689B787D
:103090001B07DB0FDBB21343DAB23B689B78DB061E
:1030A000DB0FDBB21343DAB23B68DB78DB07DB0F05
:1030B000DBB21343DAB23B68DB789B07DB0FDBB292
:1030C0001343DAB23B68DB785B07DB0FDBB21343F9
:1030D000DAB23B68DB781B07DB0FDBB21343DAB2F3
:1030E0003B68DB78DB06DB0FDBB21343DAB23B680D
:1030F000DB789B06DB0FDBB21343DAB23B68DB788D
:103100005B06DB0FDBB21343DAB23B68DB781B06EE
:10311000DB0FDBB21343DAB23B681B79DB07DB0F53
:10312000DBB21343DAB23B681B799B07DB0FDBB2E0
:103130001343DAB23B681B795B07DB0FDBB2134347
:10314000DAB23B681B791B07DB0FDBB21343DAB241
:103150003B681B79DB06DB0FDBB21343DAB23B685B
:103160001B799B06DB0FDBB21343DAB23B681B799A
:103170005B06DB0FDBB21343DAB23B681B791B063D
:10318000DB0FDBB21343DAB23B685B79DB07DB0FA3
:10319000DBB21343DAB23B685B799B07DB0FDBB230
:1031A0001343DAB23B685B795B07DB0FDBB2134397
:1031B000DAB23B685B791B07DB0FDBB21343DAB291
:1031C0003B685B79DB06DB0FDBB21343DAB23B68AB
:1031D0005B799B06DB0FDBB21343DAB23B685B79AA
:1031E0005B06DB0FDBB21343DAB23B685B791B068D
:1031F000DB0FDBB21343DBB2002B05D03B685A7800
:1032000002210A435A7004E03B685A7802218A433B
:103210005A703A68786801230D21FFF706F9030018
:10322000FB60FB68002B08D13B685A1C78680123BF
:103230005E21FFF7FAF80300FB60FB68002B00D06B
:103240007EE008243A19786801235821FFF7C4F872
:103250000300FB603B681B781B06DB0FDAB23B68A0
:103260001B785B07DB0FDBB21343DAB23B681B78DA
:103270005B06DB0FDBB21343DAB23B681B789B07BC
:10328000DB0FDBB21343DAB23B681B78DB07DB0FE3
:10329000DBB21343DAB23B681B789B06DB0FDBB271
:1032A0001343DAB23B681B78DB06DB0FDBB2134358
:1032B000DAB23B681B781B07DB0FDBB21343DAB2D1
:1032C0003B685B78DB07DB0FDBB21343DAB23B68AA
:1032D0005B785B07DB0FDBB21343DAB23B685B78EA
:1032E0001B07DB0FDBB21343DAB23B685B78DB060C
:1032F000DB0FDBB21343DAB23B685B789B06DB0F74
:10330000DBB21343DAB23B685B785B06DB0FDBB200
:103310001343DAB23B685B781B06DB0FDBB2134367
:10332000DBB2002B06D03B191A78802149420A43B0
:103330001A7005E00823FB181A787F210A401A70DA
:10334000FB68002B08D10823FA187868012358215C
:10335000FFF76BF80300FB60FB681800BD4605B083
:1033600090BD80B584B000AF786039607B68022181
:103370001800FFF7A7FD0300FB60FB68002B08D1D6
:103380003B685A1D786801230D21FFF725F80300DB
:10339000FB60FB68002B08D13B689A1C786801230E
:1033A0000A21FFF719F80300FB60FB68002B08D126
:1033B0003B68DA1C786801230B21FFF70DF8030046
:1033C000FB60FB68002B08D13B681A1D786801235D
:1033D0000C21FFF701F80300FB60FB68002B06D10E
:1033E0007B6800211800FFF76DFD0300FB60FB68A0
:1033F000002B07D13A68786801230D21FEF7ECFF16
:103400000300FB60FB68002B08D13B685A1C7868FE
:1034100001235E21FEF7E0FF0300FB60FB6818005C
:10342000BD4604B080BD80B584B000AF786039601F
:103430007B6802211800FFF745FD0300FB60FB6875
:10344000002B08D13B685A1D786801231121FEF733
:10345000ECFF0300FB60FB68002B08D13B689A1C63
:10346000786801230E21FEF7E0FF0300FB60FB6894
:10347000002B08D13B68DA1C786801230F21FEF786
:10348000D4FF0300FB60FB68002B08D13B681A1DCA
:10349000786801231021FEF7C8FF0300FB60FB687A
:1034A000002B06D17B6800211800FFF70BFD0300FD
:1034B000FB60FB68002B00D0D6E03B689B781B07C5
:1034C000DB0FDAB23B689B78DB06DB0FDBB2134322
:1034D000DAB23B689B789B06DB0FDBB21343DAB2B0
:1034E0003B689B781B06DB0FDBB21343DAB23B6809
:1034F000DB78DB07DB0FDBB21343DAB23B68DB7848
:103500009B07DB0FDBB21343DAB23B68DB785B0768
:10351000DB0FDBB21343DAB23B68DB781B07DB0F50
:10352000DBB21343DAB23B68DB78DB06DB0FDBB2DE
:103530001343DAB23B68DB789B06DB0FDBB2134345
:10354000DAB23B68DB785B06DB0FDBB21343DAB23F
:103550003B68DB781B06DB0FDBB21343DAB23B6858
:103560001B79DB07DB0FDBB21343DAB23B681B7955
:103570009B07DB0FDBB21343DAB23B681B795B07B7
:10358000DB0FDBB21343DAB23B681B791B07DB0F9F
:10359000DBB21343DAB23B681B79DB06DB0FDBB22D
:1035A0001343DAB23B681B799B06DB0FDBB2134394
:1035B000DAB23B681B795B06DB0FDBB21343DAB28E
:1035C0003B681B791B06DB0FDBB21343DAB23B68A7
:1035D0005B79DB07DB0FDBB21343DAB23B685B7965
:1035E0009B07DB0FDBB21343DAB23B685B795B0707
:1035F000DB0FDBB21343DAB23B685B791B07DB0FEF
:10360000DBB21343DAB23B685B79DB06DB0FDBB27C
:103610001343DAB23B685B799B06DB0FDBB21343E3
:10362000DAB23B685B795B06DB0FDBB21343DAB2DD
:103630003B685B791B06DB0FDBB21343DBB2002B6D
:1036400005D03B685A7802210A435A7004E03B686F
:103650005A7802218A435A703A68786801230E2109
:10366000FEF7E3FE0300FB60FB68002B08D13B681C
:103670005A1C786801235F21FEF7D7FE0300FB6028
:10368000FB68002B08D10823FA1878680123582119
:10369000FEF7A2FE0300FB60FB68002B71D13B68C4
:1036A0001B78DB07DB0FDAB23B681B789B07DB0F6D
:1036B000DBB21343DAB23B681B785B07DB0FDBB28C
:1036C0001343DAB23B681B781B07DB0FDBB21343F3
:1036D000DAB23B681B78DB06DB0FDBB21343DAB2EE
:1036E0003B681B789B06DB0FDBB21343DAB23B6807
:1036F0001B785B06DB0FDBB21343DAB23B685B7807
:103700005B07DB0FDBB21343DAB23B685B781B0766
:10371000DB0FDBB21343DAB23B685B78DB06DB0F0F
:10372000DBB21343DAB23B685B789B06DB0FDBB29C
:103730001343DAB23B685B785B06DB0FDBB2134303
:10374000DAB23B685B781B06DB0FDBB21343DBB2FC
:10375000002B07D00823FB181A78802149420A431E
:103760001A7005E00823FB181A787F210A401A70A6
:103770000823FA18786801235821FEF756FE030043
:10378000FB60FB681800BD4604B080BD80B584B006
:1037900000AF786039607B6802211800FFF792FB68
:1037A0000300FB60FB68002B08D13B685A1D78685A
:1037B00001231121FEF710FE0300FB60FB68002BC4
:1037C00008D13B689A1C786801230E21FEF704FE9D
:1037D0000300FB60FB68002B08D13B68DA1C7868AB
:1037E00001230F21FEF7F8FD0300FB60FB68002BAF
:1037F00008D13B681A1D786801231021FEF7ECFD03
:103800000300FB60FB68002B06D17B6800211800D9
:10381000FFF758FB0300FB60FB68002B07D13A68F9
:10382000786801230E21FEF7D7FD0300FB60FB68DB
:10383000002B08D13B685A1C786801235F21FEF7F2
:10384000CBFD0300FB60FB681800BD4604B080BDE3
:1038500090B587B000AF78600A00FB1C1A70102486
:103860003A19786801235621FEF7B6FD03007B6103
:103870007B69002B27D1FB1C1B7801221340DAB295
:103880003B1901210A4010001A7801218A43111CBA
:10389000021C0A431A70FB1C1B7801221340DAB287
:1038A0003B1901210A4090011A7840218A43111CDA
:1038B000021C0A431A703A19786801235621FEF750
:1038C000B4FD03007B617B69002B06D17B6802217C
:1038D0001800FFF7F7FA03007B617B69002B08D122
:1038E0000C23FA18786801231721FEF775FD0300F1
:1038F0007B617B69002B18D1FB1C1B785B081A1CB1
:1039000001231340DAB20C243B19D0011A787F212D
:103910000A40111C021C0A431A703A1978680123E4
:103920001721FEF782FD03007B617B69002B06D126
:103930007B6800211800FFF7C5FA03007B617B69F3
:103940001800BD4607B090BD90B585B000AF786057
:103950000A00FB1C1A7008243A19786801235B21BD
:10396000FEF73AFD0300FB60FB68002B17D1FB1C40
:103970001B783F221340DAB23B193F210A40100066
:103980001A783F218A43111C021C0A431A703A1903
:10399000786801235B21FEF748FD0300FB60FB68AC
:1039A0001800BD4605B090BD90B585B000AF7860F9
:1039B0000A00FB1C1A7008243A19786801235C215C
:1039C000FEF70AFD0300FB60FB68002B17D1FB1C10
:1039D0001B7803221340DAB23B1903210A4050013D
:1039E0001A7860218A43111C021C0A431A703A1982
:1039F000786801235C21FEF718FD0300FB60FB687B
:103A00001800BD4605B090BD90B585B000AF786098
:103A10000A00FB1C1A7008243A19786801230A214D
:103A2000FEF7DAFC0300FB60FB68002B17D1FB1CE0
:103A30001B7807221340DAB23B1907210A40100015
:103A40001A7807218A43111C021C0A431A703A197A
:103A5000786801230A21FEF7E8FC0300FB60FB689D
:103A60001800BD4605B090BD80B584B000AF786049
:103A700039607B6802211800FFF724FA0300FB601D
:103A8000FB68002B07D13A68786801234621FEF7CE
:103A9000A3FC0300FB60FB68002B08D13B685A1CA9
:103AA000786801234721FEF797FC0300FB60FB6861
:103AB000002B06D17B6800211800FFF703FA0300F2
:103AC000FB60FB681800BD4604B080BD80B584B0C3
:103AD00000AF786039607B6802211800FFF7F2F9C7
:103AE0000300FB60FB68002B08D10823FA187868F4
:103AF00001235F21FEF770FC0300FB60FB68002BD5
:103B000006D17B6800211800FFF7DCF90300FB6099
:103B10000823FB181B78DB069B0FDBB2032B14D0AA
:103B200017DC022B0DD014DC002B02D0012B04D0AB
:103B30000FE03B6800221A700FE03B6801221A7008
:103B40000BE03B6802221A7007E03B6803221A7000
:103B500003E03B6800221A70C046FB681800BD46AF
:103B600004B080BD80B584B000AF786039607B68F8
:103B700002211800FFF7A6F90300FB60FB68002B89
:103B800008D10823FA18786801230521FEF724FCE0
:103B90000300FB60FB68002B0FD17B68002118003D
:103BA000FFF790F90300FB600823FB181B78DB0686
:103BB000DB0FDBB21A003B681A70FB681800BD46C9
:103BC00004B080BD80B584B000AF786039607B6898
:103BD00002211800FFF776F90300FB60FB68002B59
:103BE00008D10823FA18786801236021FEF7F4FB56
:103BF0000300FB60FB68002B2BD10823FB181B780C
:103C00009B069B0FDBB2032B14D017DC022B0DD0CD
:103C100014DC002B02D0012B04D00FE03B68002203
:103C20001A700FE03B6801221A700BE03B68022219
:103C30001A7007E03B6803221A7003E03B68002219
:103C40001A70C0467B6800211800FFF73BF903009B
:103C5000FB60FB681800BD4604B080BD80B582B033
:103C600000AF0200BB1D1A80BB1D1B88012B01D1B8
:103C7000FDF7FCFFBB1D1B88022B01D1FDF736FCB5
:103C8000C046BD4602B080BD80B594B000AF3B00D9
:103C9000180001F041FE031E18D03B00DB7A1A0029
:103CA0000423134012D03B00187A3B00597A3B00A2
:103CB0009B7A1A0000F04EFD3B0098793B00D979C1
:103CC0003B009B88DBB21A0000F07AFDC046BD467F
:103CD00014B080BD80B500AFFDF7DCFDC046BD4629
:103CE00080BD000080B500AF80231902A023DB0552
:103CF0000122180002F055FA024B01221A70C04648
:103D0000BD4680BD1A01002080B500AF024B1B7874
:103D10001800BD4680BDC0461A01002080B500AF26
:103D2000064B00221A7080231902A023DB05002213
:103D3000180002F036FAC046BD4680BD1A010020C8
:103D400080B500AF01F06FFE00F024F800F02CFA0F
:103D500000F068F800F0F8F800F076F800F034F9B8
:103D600000F0B2F800F0D2F9094B180001F0D8FECB
:103D700001F0CCFDFDF7FEFAFDF7B2FE0320FDF7E2
:103D8000F7FEFDF775FDFFF7A5FFC046FDE7C0464E
:103D9000DC05000090B597B000AF10243B19180067
:103DA00048231A00002107F0B5FF3B00180010233C
:103DB0001A00002107F0AEFF8023DB00180005F099
:103DC0007BF83B190A221A603B1980225200DA6004
:103DD0003B1940221A613B1901225A613B1900220A
:103DE0009A623B19180005F0D3F8031E01D000F0C9
:103DF000A7FA3B0007221A603B0001225A603B00F1
:103E000000229A603B000022DA603B00012118008A
:103E100005F0A4FC031E01D000F092FAC046BD4696
:103E200017B090BD80B500AF01F0F2FF031E01D0C6
:103E300000F086FA02F010F8031E01D000F080FABC
:103E4000C046BD4680BD000080B500AF1B4B1C4A7C
:103E50001A601A4B1B4A5A60184B00229A60174B83
:103E60000122DA60154B00221A61144B00225A61BC
:103E7000124B00229A61114B0022DA610F4B002293
:103E80001A620E4B180002F0DDF9031E01D000F09B
:103E900057FA0A4B0021180004F076FF031E01D0E8
:103EA00000F04EFA054B0021180004F0B9FF031E84
:103EB00001D000F045FAC046BD4680BD1C0100207F
:103EC000005400401A06100080B500AF1B4B1C4A7E
:103ED0001A601A4B1B4A5A60184B30229A60174BD3
:103EE0000122DA60154B00221A61144B00225A613C
:103EF000124B00229A61114B0022DA610F4B002213
:103F00001A620E4B180002F09DF9031E01D000F05A
:103F100017FA0A4B0021180004F036FF031E01D0E7
:103F200000F00EFA054B0021180004F079FF031E83
:103F300001D000F005FAC046BD4680BD70010020EA
:103F400000580040533DA00080B500AF1B4B1C4AF9
:103F50001A601A4B1B4A5A60184B00229A60174B82
:103F60000122DA60154B00221A61144B00225A61BB
:103F7000124B00229A61114B0022DA610F4B002292
:103F80001A620E4B180002F05DF9031E01D000F01A
:103F9000D7F90A4B0021180004F0F6FE031E01D0E9
:103FA00000F0CEF9054B0021180004F039FF031E84
:103FB00001D000F0C5F9C046BD4680BDC401002057
:103FC000008800405B3D300080B592B000AF3423E4
:103FD000FB18180014231A00002107F09BFE302361
:103FE000FB1800221A603B00180030231A00002141
:103FF00007F090FE414B424A1A60404B00225A6043
:104000003E4B7F229A603D4B3E4ADA603B4B00229A
:104010001A613A4B00225A61384B00229A61374BA1
:104020008022D205DA61354B00221A62334B00221E
:104030005A62324B180006F071FC031E01D000F0EA
:104040007FF934217B1800221A707B1800225A70E5
:104050007B1800229A707B180022DA607B180022FD
:104060001A617918254B0122180006F0FDFC031E89
:1040700001D000F065F930217B1801221A707B18FD
:1040800001225A707B1801229A707B180022DA7084
:1040900079181A4B0122180006F00AFE031E01D0FF
:1040A00000F04EF93B0000221A703B0000225A70CB
:1040B0003B0001229A703B0000225A603B00124AEA
:1040C0005A613B0000229A613B0000221A623B00C9
:1040D0002422012199543B0080225200DA623900E7
:1040E000064B0122180006F0D7FE031E01D000F097
:1040F00027F9C046BD4612B080BDC0461802002058
:1041000000280040550200000080808080B500AF8C
:10411000234B244A1A60224BE12252025A60204B60
:1041200000229A601E4B0022DA601D4B00221A61A9
:104130001B4B0C225A611A4B00229A61184B002229
:10414000DA61174B00221A62154B00225A62144B97
:1041500000229A62124B180007F07EF8031E01D06D
:1041600000F0EEF80E4B0021180007F0F3FC031EE0
:1041700001D000F0E5F80A4B0021180007F02AFDF5
:10418000031E01D000F0DCF8054B180007F0A8FC76
:10419000031E01D000F0D4F8C046BD4680BDC04625
:1041A000480200200048004090B589B000AF0C24C0
:1041B0003B19180014231A00002107F0ABFD5C4BDB
:1041C000DA6C5B4B01210A43DA64594BDB6C012248
:1041D0001340BB60BB68564BDA6C554B02210A4357
:1041E000DA64534BDB6C022213407B607B685149DD
:1041F000514B0122180001F0D4FF82231B014E48CD
:104200000022190001F0CDFF80235900A023DB0517
:104210000122180001F0C5FF90231902A023DB053D
:104220000022180001F0BDFF3B1903221A603B1960
:10423000882252035A603B1900229A603A19A0233F
:10424000DB051100180001F023FE21007B18042279
:10425000FF321A600C003B1900225A603B19002201
:104260009A603B19344A1900100001F011FE3B1905
:10427000324A1A603B1901225A603B1900229A60A7
:104280003B190022DA603B192B4A1900100001F09B
:10429000FFFD21007B188022D2001A607B18882243
:1042A00052035A607B1800229A600C007B18224A45
:1042B0001900100001F0ECFD21007B189122120280
:1042C0001A600C003B1901225A603B1900229A60C7
:1042D0003B190022DA603A19A023DB05110018000F
:1042E00001F0D6FD21007B18802292001A607B1815
:1042F00000225A607B1801229A607B180E4A19002E
:10430000100001F0C5FD00220021052001F0D8FCBD
:10431000052001F0EAFC00220021072001F0D0FC7A
:10432000072001F0E2FCC046BD4609B090BDC04682
:104330000010024004100000000400502418000087
:1043400080B500AF72B6C046C046FDE780B500AF8D
:1043500080235901A023DB050122180001F021FF71
:10436000C046BD4680BD80B500AF80235901A02363
:10437000DB050022180001F014FFC046BD4680BDD9
:1043800080B582B000AF786039603B6801221A7056
:1043900080235A01A023DB051100180001F0E4FE80
:1043A000031E03D07B6801221A7002E07B680022A2
:1043B0001A70C046BD4602B080BDB0B584B000AF33
:1043C000786039600E243B191800FDF7E9FB0C25D5
:1043D0007B191800FDF7F6FB3B6805221A70FDF704
:1043E0002BFC0300DAB27B681A707B680133391941
:1043F0000222180007F0BAFC7B6803337919022205
:10440000180007F0B3FCFDF727FCC046BD4604B01A
:10441000B0BD000080B582B000AF78607B685A788C
:10442000054B1A70FDF75CFB0320FDF7A1FBC046AE
:10443000BD4602B080BDC0460400002080B582B0F9
:1044400000AF786039603B6801221A70FDF73AF8D6
:104450000300DAB27B681A70FDF73EF8C046BD462D
:1044600002B080BD80B582B000AF78607B681A78FA
:10447000034B1A70FCF77EFFC046BD4602B080BDFC
:1044800000000020B0B588B000AF786039600C241F
:104490003B19180014231A00002107F03BFC0825E3
:1044A0007B1900221A603B19180000F0BBF97B1938
:1044B000180000F0C7F93B6806221A7029007B1823
:1044C000DA787B681A707B6801337A1852781A7030
:1044D0007B6802337A1892781A707B6803333A1932
:1044E00012781A707B6804333A1952781A707B6814
:1044F00005333A1992781A70C046BD4608B0B0BD6F
:1045000080B582B000AF7860FFF7BEFBC046BD4605
:1045100002B080BD80B584B000AF786039603B6880
:1045200003221A70FDF7ECF803001A000C203B1868
:10453000111C19701104090E59701202120E9A7092
:1045400001007B181A787B681A707B6801337A182F
:1045500092781A707B6802337A1852781A70C046C3
:10456000BD4604B080BD90B597B000AF78603960AB
:104570003B680C221A7008243B19180001F0CCF992
:104580003B19143319007B680422180007F0EEFB76
:104590007B68181D3B1910330422190007F0E6FB55
:1045A0007B68083318003B191C330422190007F0FC
:1045B000DDFBC046BD4617B090BD80B582B000AFF0
:1045C000786039603B6803221A70FFF79DFB030097
:1045D0001A007B681A70FFF7A1FBFDF72DFB0200A4
:1045E0007B680133D2B21A70FDF736FBFCF76AFF25
:1045F00002007B680233D2B21A70FCF76DFFC0462E
:10460000BD4602B080BD000080B582B000AF7860CA
:1046100039603B6800221A703B6800225A707B6840
:104620001B78132B00D167E000DD86E0122B16D03B
:1046300000DD82E0102B02D0112B08D07DE07B68DA
:104640005B78012B00D07CE0FFF780FE79E07B688F
:104650005B78012B00D076E0FFF785FE73E07B6886
:104660005B78072B43D89A00394BD3181B689F46B9
:104670003B689A1C3B68013319001000FFF780FE6D
:1046800039E03B689A1C3B68013319001000FFF7C2
:10469000F9FE30E03B689A1C3B68013319001000BA
:1046A000FFF78BFE27E03B689A1C3B68013319003B
:1046B0001000FFF7C3FE1EE03B689A1C3B68013305
:1046C00019001000FFF74FFF15E03B689A1C3B688C
:1046D000013319001000FFF71DFF0CE03B689A1C26
:1046E0003B68013319001000FFF767FF03E03B68E8
:1046F00001221A70C04627E07B685B78062B11D038
:1047000016DC022B02D0032B06D011E07B680333AA
:104710001800FFF77FFE0FE07B6803331800FFF7F8
:10472000A1FE09E07B6803331800FFF7E9FE03E010
:104730003B6801221A70C04606E03B6801221A70ED
:1047400002E0C04600E0C046C046BD4602B080BDA3
:1047500014BE000890B589B000AF04000800110035
:10476000FB1D221C1A70BB1D021C1A707B1D0A1C2B
:104770001A700C243B19180014231A00002107F0AA
:10478000C9FA39190D4B0122180006F02DFA210043
:104790007B18FA1D12781A707B18BA1D12785A709D
:1047A0007B187A1D12789A707918044B0122180030
:1047B00006F05AF9C046BD4609B090BD1802002067
:1047C00090B585B000AF040008001100FB1D221C4D
:1047D0001A70BB1D021C1A707B1D0A1C1A700C2457
:1047E0003B1900221A6039190D4B0122180006F0FE
:1047F00005FB21007B18FA1D12785A707B18BA1D30
:1048000012789A707B187A1D1278DA707918044B36
:104810000122180006F04CFAC046BD4605B090BD16
:104820001802002080B582B000AF78607968044B30
:104830000122180006F0D8F9C046BD4602B080BD7E
:104840001802002080B582B000AF78607968044B10
:104850000122180006F0D2FAC046BD4602B080BD63
:1048600018020020B0B586B000AFF86008007A608A
:1048700019000B23FB18021C1A700823FB180A1CD2
:104880001A80FB68002B02D101235B420FE0FB681A
:104890005C68FB68D8680823FB181D887A680B23BE
:1048A000FB1819782B00A04703007B617B69180077
:1048B000BD4606B0B0BDB0B586B000AFF860080028
:1048C0007A6019000B23FB18021C1A700823FB18CE
:1048D0000A1C1A80FB68002B02D101235B420FE007
:1048E000FB681C68FB68D8680823FB181D887A6879
:1048F0000B23FB1819782B00A04703007B617B6911
:104900001800BD4606B0B0BD90B587B000AF786066
:1049100039603B681B780F221340DBB2002B01D1BA
:10492000002354E01023FA18786801232521FFF7AB
:1049300099FF03007B611223FB1800221A800C24CC
:104940003A197B681100180000F04AF902007B69EF
:104950009B187B617B689B68012098473B191B78FB
:1049600001221340DBB2002B09D11222BB181B8895
:10497000BA18591C1180FA2212019342DFD37B69C5
:10498000002B06D11223FB181A88FA231B019A4226
:1049900002D301235B421AE03B681A780F218A4355
:1049A0001A703A68786801232021FFF784FF02001B
:1049B0007B699B187B611023FA18786801232521F5
:1049C000FFF750FF02007B699B187B617B69180031
:1049D000BD4607B090BD80B586B000AFF860B96045
:1049E000FB1D1A70BA68FB6811001800FFF78CFFF6
:1049F00003007B61FB1D1B78002B21D0FB68180096
:104A000000F0DFFC02007B699B187B61FB1D1B78BB
:104A10000F221340DAB2BB680F210A4010001A7847
:104A20000F218A43111C021C0A431A70BA68F868E5
:104A300001232021FFF73FFF02007B699B187B6168
:104A40007B691800BD4606B080BD000090B587B0F8
:104A500000AF78600A00FB1C1A701723FB180822AD
:104A60001A700C23FA18786801232021FFF7FAFE48
:104A700003003B613B69002B33D108243A19786865
:104A800001231021FFF7EEFE03003B613B191B7869
:104A90005B075B0FDBB2033B042B04D89A001F4B70
:104AA000D3181B689F461723FB1808221A7018E0BA
:104AB0001723FB1806221A7013E01723FB18052290
:104AC0001A700EE01723FB1804221A7009E017234E
:104AD000FB1803221A7004E01723FB1802221A7035
:104AE000C0463B69002B13D1FA1C1723FB18127820
:104AF0001B789A4202D901235B420AE0FB1C1A7818
:104B00000C23F9187B681800FFF765FF03003B6171
:104B10003B691800BD4607B090BDC04634BE0008D2
:104B200090B585B000AF78600A00FB1C1A700824AD
:104B30003A19786801232021FFF794FE0300FB60F7
:104B4000FB68002B17D1FB1C1B7801221340DAB243
:104B50003B1901210A4010011A7810218A43111CC7
:104B6000021C0A431A703A19786801232021FFF7C2
:104B7000A2FE0300FB60FB681800BD4605B090BDB7
:104B800090B585B000AF78600A00FB1C1A7008244D
:104B90003A19786801232121FFF764FE0300FB60C6
:104BA000FB68002B17D1FB1C1B7801221340DAB2E3
:104BB0003B1901210A4010011A7810218A43111C67
:104BC000021C0A431A703A19786801232121FFF761
:104BD00072FE0300FB60FB681800BD4605B090BD87
:104BE00090B585B000AF7860396008243A197868CC
:104BF00001232321FFF736FE0300FB603B191B78DE
:104C00005B07DB0FDAB23B6801210A4010001A781B
:104C100001218A43111C021C0A431A70FB68180008
:104C2000BD4605B090BD90B585B000AF78603960E5
:104C300008243A19786802233A21FFF713FE03008B
:104C4000FB6021007B185B781AB23B681A803B68D6
:104C500000229B5E9BB21B029BB27A1812789B18B3
:104C60009BB21AB23B681A80FB681800BD4605B0BB
:104C700090BD90B585B000AF7860396008243A19CE
:104C8000786802233C21FFF7EDFD0300FB60210063
:104C90007B185B781AB23B681A803B6800229B5EE7
:104CA0009BB21B029BB27A1812789B189BB21AB265
:104CB0003B681A80FB681800BD4605B090BD90B5F2
:104CC00085B000AF78600A00FB1C1A7008243A19FE
:104CD000786801232221FFF7C5FD0300FB60FB6814
:104CE000002B21D1FB1C1B7803221340DAB23B19A5
:104CF00003210A4010001A7803218A43111C021C68
:104D00000A431A70FB1C1B78022B04D13B191A783A
:104D100004218A431A700823FA1878680123222193
:104D2000FFF7C9FD0300FB60FB681800BD4605B036
:104D300090BD90B585B000AF78600A00FB1C1A707A
:104D400008243A19786801232221FFF78BFD03001C
:104D5000FB60FB68002B17D1FB1C1B78072213405C
:104D6000DAB23B1907210A40D0001A7838218A4369
:104D7000111C021C0A431A703A1978680123222177
:104D8000FFF799FD0300FB60FB681800BD4605B006
:104D900090BD90B585B000AF78603B0019800824C5
:104DA0003A19786801232221FFF75CFD0300FB60BC
:104DB000FB68002B27D13B001B781A1C01231340F2
:104DC000DAB23B1901210A4090011A7840218A4346
:104DD000111C021C0A431A703B005B781A1C012349
:104DE0001340DAB23B19D0011A787F210A40111C16
:104DF000021C0A431A703A19786801232221FFF72E
:104E00005AFD0300FB60FB681800BD4605B090BD6D
:104E1000F0B589B000AFF86008007A6019000B2681
:104E2000BB19021C1A700A23FB180A1C1A701424DE
:104E30003B1900221A7018257A19F86801232021DD
:104E4000FFF710FD0300FB6129007B181B781B078F
:104E50001B0FDAB21A23FB181A707918FB680022AC
:104E60001800FFF7B8FD0200FB699B18FB61FB68A7
:104E700001211800FFF784FE0200FB699B18FB610B
:104E80003B191A7840210A431A703A19F86801232D
:104E90001121FFF710FD0200FB699B18FB61BA1995
:104EA000F86801230821FFF706FD0200FB699B1843
:104EB000FB611B23FB1800221A7012E01B243B1914
:104EC0001B787A68D218F86801230921FFF7F3FCF0
:104ED0000200FB699B18FB613B191A783B190132F0
:104EE0001A701B23FA180A23FB1812781B789A42AF
:104EF000E4D314203B181A7840218A431A703A18D8
:104F0000F86801231121FFF7D6FC0200FB699B180A
:104F1000FB61FB6800211800FFF732FE0200FB690D
:104F20009B18FB611A23FB181A781823F918FB68E1
:104F30001800FFF750FD0200FB699B18FB61FB693D
:104F40001800BD4609B0F0BDB0B588B000AFF8603C
:104F500008007A6019000B23FB18021C1A700A2340
:104F6000FB180A1C1A7014243B1900221A70182509
:104F70007A19F86801232021FFF774FC0300FB6114
:104F800029007B181B781B071B0FDAB21A23FB18AA
:104F90001A707918FB6800221800FFF71CFD020048
:104FA000FB699B18FB61FB6801211800FFF7E8FD16
:104FB0000200FB699B18FB613B191A7820210A4308
:104FC0001A703A19F86801231121FFF774FC0200E6
:104FD000FB699B18FB611B23FB1800221A7026E05B
:104FE0000B23FA181B243B1912781B78D318DAB25A
:104FF00017217B181A707A18F86801230821FFF727
:105000005AFC0200FB699B18FB613B191B787A680C
:10501000D218F86801230921FFF724FC0200FB697C
:105020009B18FB613B191A783B1901321A701B233C
:10503000FA180A23FB1812781B789A42D0D314204E
:105040003B181A7820218A431A703A18F86801230D
:105050001121FFF730FC0200FB699B18FB61FB6824
:1050600000211800FFF78CFD0200FB699B18FB6113
:105070001A23FB181A781823F918FB681800FFF791
:10508000AAFC0200FB699B18FB61FB691800BD4686
:1050900008B0B0BDB0B586B000AF78600A00BB1CE8
:1050A0001A80BB1C00229B5E002B02DA01235B42AC
:1050B00045E010243A19786801232021FFF7D2FB3C
:1050C00003007B613B191B781B071B0FDAB213250A
:1050D0007B191A7039197B6800221800FFF77BFCD6
:1050E00002007B699B187B61BB1C1B881B0A9BB25F
:1050F000DAB20C217B185A70BB1C1B88DAB27B1801
:105100001A707A18786802232021FFF781FE0200C6
:105110007B699B187B617B68180000F052F90200E4
:105120007B699B187B617B191A7839197B68180099
:10513000FFF751FC02007B699B187B617B691800BB
:10514000BD4606B0B0BDB0B586B000AF78600A000D
:10515000BB1C1A80BB1C00229B5E002B02DA0123C1
:105160005B4245E010243A19786801232021FFF7BB
:1051700079FB03007B613B191B781B071B0FDAB21D
:1051800013257B191A7039197B6800221800FFF764
:1051900022FC02007B699B187B61BB1C1B881B0ADD
:1051A0009BB2DAB20C217B185A70BB1C1B88DAB296
:1051B0007B181A707A18786802232221FFF728FEDC
:1051C00002007B699B187B617B68180000F0F9F88E
:1051D00002007B699B187B617B191A7839197B68FF
:1051E0001800FFF7F8FB02007B699B187B617B6965
:1051F0001800BD4606B0B0BD80B584B000AF786081
:105200003B0019703B001B78DB07DB0FDBB25BB2A6
:10521000DB005AB23B001B789B07DB0FDBB25BB2B3
:105220009B005BB213435AB23B001B785B07DB0F5A
:10523000DBB25BB2DB185BB213435BB2DAB20B21B9
:105240007B181A707A18786801232821FFF7E0FD8F
:105250000300FB60FB681800BD4604B080BD90B53C
:1052600085B000AF786039600B243A197868012363
:105270002821FFF769FE0300FB603B191B785B08E0
:10528000DBB21A1C01231340DAB23B6801210A4049
:1052900090001A7804218A43111C021C0A431A70D8
:1052A0003B191B789B08DBB21A1C01231340DAB2AE
:1052B0003B6801210A4090181A7802218A43111C88
:1052C000021C0A431A703B191B78DB08DBB21A1C5C
:1052D00001231340DAB23B6801210A4010001A781A
:1052E00001218A43111C021C0A431A70FB68180032
:1052F000BD4605B090BD90B587B000AF78600A009C
:10530000FB1C1A7010243A19786801232021FFF73A
:10531000A9FA03007B6121007B181B781B071B0F78
:10532000DAB21323FB181A7079187B680022180070
:10533000FFF751FB02007B699B187B617B69002BA7
:1053400001D07B6939E00C243A197B681100180000
:10535000FFF785FF03007B61FB1C1B7801221340D4
:10536000DAB23B1901210A4090181A7802218A43C7
:10537000111C021C0A431A703B191A787B68111C15
:105380001800FFF739FF02007B699B187B617B687F
:10539000180000F016F802007B699B187B6113234C
:1053A000FB181A781023F9187B681800FFF713FB15
:1053B00002007B699B187B617B691800BD4607B0C2
:1053C00090BD90B587B000AF786010243B190022E3
:1053D0001A707B6801211800FFF7D2FB03007B6184
:1053E0003B191A7840210A431A703A197868012348
:1053F0001121FFF760FA02007B699B187B610F2186
:105400007B182A221A707A18786801230821FFF77E
:1054100052FA02007B699B187B610E217B180122E6
:105420001A707A18786801230921FFF744FA0200FC
:105430007B699B187B613B191A7840218A431A705B
:105440003A19786801231121FFF735FA02007B69C8
:105450009B187B617B6800211800FFF791FB02001D
:105460007B699B187B617B691800BD4607B090BDC6
:1054700080B582B000AF0F4B9A6D0E4B802149056D
:105480000A439A650B4B9A6D80235B0513407B6042
:105490007B68084B1A6E074B01210A431A66054BBD
:1054A0001B6E012213403B603B68C046BD4602B004
:1054B00080BDC0460010024090B59DB000AF78603E
:1054C0005C23FB18180014231A00002106F022FCAC
:1054D00024243B19180038231A00002106F01AFC76
:1054E0007B681B68684A93423ED13B1920221A60B0
:1054F0003B1900225A613B19180004F045FB031EBA
:1055000001D0FEF71DFF614BDA6C604B02210A43AC
:10551000DA645E4BDB6C022213403B623B6A5C2127
:105520007B18C0221A607B1812225A607B18002256
:105530009A607B180022DA607B1804221A617B18BB
:10554000534A1900100000F0A3FC504B9A6D4F4BCA
:10555000802189030A439A654C4B9A6D80239B03F3
:105560001340FB61FB698BE07B681B68494A9342EF
:105570003AD1464BDA6C454B01210A43DA64434B7E
:10558000DB6C01221340BB61BB695C217B18C0222C
:10559000D2001A607B1812225A607B1800229A608F
:1055A0007B180022DA607B1805221A617A18A02382
:1055B000DB051100180000F06BFC344B9A6D334B87
:1055C0008021C9030A439A65304B9A6D8023DB031F
:1055D00013407B617B6900220021182000F070FBE2
:1055E000182000F082FB4BE07B681B682A4A93423C
:1055F00046D124217B1840221A607B1800229A6130
:105600007B18180004F0C0FA031E01D0FEF798FEC4
:105610001E4BDA6C1D4B02210A43DA641B4BDB6C18
:10562000022213403B613B695C217B1818221A60FF
:105630007B1812225A607B1800229A607B18002285
:10564000DA607B1804221A617B18114A19001000D5
:1056500000F01EFC0D4B9A6D0C4B802109040A438F
:105660009A650A4B9A6D80231B041340FB60FB680C
:1056700000220021182000F023FB182000F035FB49
:10568000C046BD461DB090BD005400400010024011
:1056900000040050005800400088004090B593B0CE
:1056A00000AF786010243B19180038231A0000213D
:1056B00006F030FB7B681B681A4A93422ED13B19D7
:1056C000802212021A603B19802292005A633B1911
:1056D000180004F059FA031E01D0FEF731FE124AF9
:1056E0009023D358104980221202134390228B50EA
:1056F0000D4B9A6D0C4B8021C9000A439A650A4BE9
:105700009A6D8023DB001340FB60FB6800220021C0
:10571000022000F0D5FA022000F0E7FAC046BD46AC
:1057200013B090BD002800400010024090B599B021
:1057300000AF78604C23FB18180014231A000021D6
:1057400006F0E8FA14243B19180038231A00002147
:1057500006F0E0FA7B681B68214A93423CD13B1972
:10576000802252021A603B19180004F00DFA031E41
:1057700001D0FEF7E5FD1B4B9A6D1A4B8021C90243
:105780000A439A65174B9A6D8023DB0213403B61F5
:105790003B69144BDA6C134B01210A43DA64114B59
:1057A000DB6C01221340FB60FB684C217B18A022BC
:1057B0001A607B1802225A607B1800229A607B18BC
:1057C0000022DA607B1807221A617A18A023DB0511
:1057D0001100180000F05CFBC046BD4619B090BD3A
:1057E000004800400010024080B500AFC046FDE711
:1057F00080B500AFC046FDE780B500AFC046BD46EE
:1058000080BD80B500AFC046BD4680BD80B500AF4D
:1058100000F06AF9C046BD4680BD000080B500AF0B
:10582000034B180005F048FCC046BD4680BDC0468D
:105830001802002080B500AF012000F0CFFC02204C
:1058400000F0CCFCC046BD4680BD80B500AF8023D3
:10585000DB00180000F0C2FCC046BD4680BD000061
:1058600080B500AF114B1B689A69E023DB00134041
:1058700004D00E4B180001F0BBFB03E00B4B1800EB
:1058800001F09CFB0A4B1B689A69E023DB00134084
:1058900004D0074B180001F0ABFB03E0044B1800E9
:1058A00001F08CFBC046BD4680BDC04670010020A3
:1058B000C401002080B582B000AF124B80221205D7
:1058C0009A60114A8023D3587B600F4B1B6A3B6060
:1058D0007A6880235B02134010D03B68FF2213409C
:1058E000CC2B0BD03B68FF221340AA2B06D0064BD3
:1058F0001A68054B8021C9020A431A60C046BD469A
:1059000002B080BD00ED00E00020024080B500AF95
:10591000C046BD4680BD000080B59EB002AF786035
:105920002A4A2B48642300930823842100F030FD89
:10593000031E01D0002344E06823FA18244864239E
:1059400000930623842100F02BFE031E01D00023C8
:1059500037E068217B181B791AB27B185B791BB280
:105960001B021BB213431AB26E217B181A807B18DC
:105970001B885C2B01D0002323E06E23FB181B88BF
:105980000C22BA181248FF210091842100F008FE71
:10599000031E01D0002314E00823FA180C486423E6
:1059A00000930223842100F0FBFD031E01D000239D
:1059B00007E00C23F9187B685022180006F0D6F98E
:1059C00001231800BD461CB080BDC0460C0000205D
:1059D0001C0100200D488546FFF76CFF0C480D495F
:1059E0000D4A002302E0D458C4500433C4188C423A
:1059F000F9D30A4A0A4C002301E013600432A242A0
:105A0000FBD306F08FF9FEF79BF9FEE7003000208C
:105A1000000000201C0000204CBF00081C000020DB
:105A2000E0020020FEE780B582B000AFFB1D00223F
:105A30001A70032000F00EF8031E03D0FB1D012294
:105A40001A7001E0FFF714FDFB1D1B781800BD461E
:105A500002B080BD90B585B000AF78600F23FB1811
:105A600000221A701D4B1B78002B2BD01C4B1C687E
:105A70001A4B1B781900FA239800FAF745FB03002C
:105A800019002000FAF740FB0300180000F03DF970
:105A9000031E12D17B68032B0AD8796801235B426D
:105AA0000022180000F00CF90E4B7A681A600DE025
:105AB0000F23FB1801221A7008E00F23FB180122A4
:105AC0001A7003E00F23FB1801221A700F23FB1832
:105AD0001B781800BD4605B090BDC04618000020D8
